{
  "contractName": "roll_up",
  "abi": [
    {
      "inputs": [
        {
          "name": "_zksnark_verify",
          "type": "address"
        },
        {
          "name": "_root",
          "type": "bytes32"
        }
      ],
      "payable": false,
      "stateMutability": "nonpayable",
      "type": "constructor",
      "signature": "constructor"
    },
    {
      "anonymous": false,
      "inputs": [
        {
          "indexed": false,
          "name": "withdrawer",
          "type": "address"
        }
      ],
      "name": "Withdraw",
      "type": "event",
      "signature": "0xf67611512e0a2d90c96fd3f08dca4971bc45fba9dc679eabe839a32abbe58a8e"
    },
    {
      "constant": false,
      "inputs": [
        {
          "name": "A",
          "type": "uint256[2]"
        },
        {
          "name": "A_p",
          "type": "uint256[2]"
        },
        {
          "name": "B",
          "type": "uint256[2][2]"
        },
        {
          "name": "B_p",
          "type": "uint256[2]"
        },
        {
          "name": "C",
          "type": "uint256[2]"
        },
        {
          "name": "C_p",
          "type": "uint256[2]"
        },
        {
          "name": "H",
          "type": "uint256[2]"
        },
        {
          "name": "K",
          "type": "uint256[2]"
        },
        {
          "name": "input",
          "type": "uint256[]"
        }
      ],
      "name": "isTrue",
      "outputs": [
        {
          "name": "",
          "type": "bool"
        }
      ],
      "payable": false,
      "stateMutability": "nonpayable",
      "type": "function",
      "signature": "0xb6ff51dd"
    },
    {
      "constant": true,
      "inputs": [],
      "name": "getRoot",
      "outputs": [
        {
          "name": "",
          "type": "bytes32"
        }
      ],
      "payable": false,
      "stateMutability": "view",
      "type": "function",
      "signature": "0x5ca1e165"
    },
    {
      "constant": false,
      "inputs": [
        {
          "name": "x",
          "type": "bytes32"
        }
      ],
      "name": "padZero",
      "outputs": [
        {
          "name": "",
          "type": "bytes32"
        }
      ],
      "payable": false,
      "stateMutability": "nonpayable",
      "type": "function",
      "signature": "0x0a152dd8"
    },
    {
      "constant": true,
      "inputs": [
        {
          "name": "a",
          "type": "uint256"
        }
      ],
      "name": "reverseByte",
      "outputs": [
        {
          "name": "",
          "type": "uint256"
        }
      ],
      "payable": false,
      "stateMutability": "pure",
      "type": "function",
      "signature": "0xf0838306"
    },
    {
      "constant": true,
      "inputs": [
        {
          "name": "a",
          "type": "bytes32"
        }
      ],
      "name": "reverse",
      "outputs": [
        {
          "name": "",
          "type": "bytes32"
        }
      ],
      "payable": false,
      "stateMutability": "pure",
      "type": "function",
      "signature": "0x37b34974"
    }
  ],
  "bytecode": "0x608060405234801561001057600080fd5b5060405160408061066c83398101604052805160209091015160018054600160a060020a03909316600160a060020a03199093169290921790915560005561060f8061005d6000396000f3006080604052600436106100535763ffffffff60e060020a6000350416630a152dd8811461005857806337b34974146100825780635ca1e1651461009a578063b6ff51dd146100af578063f083830614610268575b600080fd5b34801561006457600080fd5b50610070600435610280565b60408051918252519081900360200190f35b34801561008e57600080fd5b50610070600435610287565b3480156100a657600080fd5b506100706102d4565b3480156100bb57600080fd5b506040805180820182526102549136916004916044919083906002908390839080828437505060408051808201825294979695818101959450925060029150839083908082843750506040805180820190915293969594608081019493509150600290506000835b8282101561015c576040805180820182529080840286019060029083908390808284375050509183525050600190910190602001610123565b50506040805180820182529396959481810194935091506002908390839080828437505060408051808201825294979695818101959450925060029150839083908082843750506040805180820182529497969581810195945092506002915083908390808284375050604080518082018252949796958181019594509250600291508390839080828437505060408051808201825294979695818101959450925060029150839083908082843750506040805186358801803560208181028481018201909552818452979a999888019792965090820194509250829190850190849080828437509497506102da9650505050505050565b604080519115158252519081900360200190f35b34801561027457600080fd5b506100706004356105a2565b600f191690565b60008080805b60208210156102cb575060ff6008601f8390030260020a8504166102b0816105a2565b6008830260020a81029390930192600190920191905061028d565b50909392505050565b60005490565b6000806103066103018460008151811015156102f257fe5b60209081029091010151610287565b610280565b9050610313600054610280565b811461031e57600080fd5b600160009054906101000a9004600160a060020a0316600160a060020a031663c8e6ba4d8c8c8c8c8c8c8c8c8c6040518a63ffffffff1660e060020a028152600401808a600260200280838360005b8381101561038557818101518382015260200161036d565b5050505090500189600260200280838360005b838110156103b0578181015183820152602001610398565b505050509050018860026000925b818410156103fe5760208402830151604080838360005b838110156103ed5781810151838201526020016103d5565b5050505090500192600101926103be565b9250505087600260200280838360005b8381101561042657818101518382015260200161040e565b5050505090500186600260200280838360005b83811015610451578181015183820152602001610439565b5050505090500185600260200280838360005b8381101561047c578181015183820152602001610464565b5050505090500184600260200280838360005b838110156104a757818101518382015260200161048f565b5050505090500183600260200280838360005b838110156104d25781810151838201526020016104ba565b5050505090500180602001828103825283818151815260200191508051906020019060200280838360005b838110156105155781810151838201526020016104fd565b505050509050019a5050505050505050505050602060405180830381600087803b15801561054257600080fd5b505af1158015610556573d6000803e3d6000fd5b505050506040513d602081101561056c57600080fd5b5051151561057957600080fd5b61058e6103018460028151811015156102f257fe5b6000555060019a9950505050505050505050565b60f0600f8083166008908102600290810a6ff070b030d0509010e060a020c0408000908104949094166010909504831691909102600401900a9091041601905600a165627a7a723058204e88b7c9a8a684cf127f643bdb885635d3320caba88bd4d659dddd2a14359d7b0029",
  "source": "/*    \n    copyright 2018 to the roll_up Authors\n\n    This file is part of roll_up.\n\n    roll_up is free software: you can redistribute it and/or modify\n    it under the terms of the GNU General Public License as published by\n    the Free Software Foundation, either version 3 of the License, or\n    (at your option) any later version.\n\n    roll_up is distributed in the hope that it will be useful,\n    but WITHOUT ANY WARRANTY; without even the implied warranty of\n    MERCHANTABILITY or FITNESS FOR A PARTICULAR PURPOSE.  See the\n    GNU General Public License for more details.\n\n    You should have received a copy of the GNU General Public License\n    along with roll_up.  If not, see <https://www.gnu.org/licenses/>.\n*/\n\npragma solidity ^0.4.24;\n\nimport \"./Verifier.sol\";\n\n\ncontract roll_up {\n    bytes32 root;\n    Verifier zksnark_verify;\n\n    event Withdraw (address withdrawer); \n\n    constructor (address _zksnark_verify, bytes32 _root) {\n        zksnark_verify = Verifier(_zksnark_verify);\n        root = _root;\n    }\n\n    function isTrue (\n            uint[2] A,\n            uint[2] A_p,\n            uint[2][2] B,\n            uint[2] B_p,\n            uint[2] C,\n            uint[2] C_p,\n            uint[2] H,\n            uint[2] K,\n            uint[] input\n    ) \n        returns (bool) \n    {\n\n        bytes32 _root = padZero(reverse(bytes32(input[0]))); \n        require(_root == padZero(root));\n        require(zksnark_verify.verifyTx(\n            A, A_p, B, B_p, C, C_p, H, K, input)\n        );\n        root = padZero(reverse(bytes32(input[2])));\n        return true;\n    }\n\n    function getRoot() view returns(bytes32) {\n        return root;\n    } \n\n    function padZero(bytes32 x) returns(bytes32) {\n        // 0x1111111111111111111111113fdc3192693e28ff6aee95320075e4c26be03308\n        return(x & 0xFFFFFFFFFFFFFFFFFFFFFFFFFFFFFFFFFFFFFFFFFFFFFFFFFFFFFFFFFFFFFFF0);\n    }\n\n    function reverseByte(uint a) public pure returns (uint) {\n        uint c = 0xf070b030d0509010e060a020c0408000;\n        return (( c >> ((a & 0xF)*8)) & 0xF0)   +  \n               (( c >> (((a >> 4)&0xF)*8) + 4) & 0xF);\n    }\n\n    // flip endianess\n    function reverse(bytes32 a) public pure returns(bytes32) {\n        uint r;\n        uint i;\n        uint b;\n        for (i = 0; i < 32; i++) {\n            b = (uint(a) >> ((31-i)*8)) & 0xff;\n            b = reverseByte(b);\n            r += b << (i*8);\n        }\n        return bytes32(r);\n    }\n\n}\n",
  "sourcePath": "/ethereum/contracts/roll_up.sol",
  "compiler": {
    "name": "solc",
    "version": "0.4.24+commit.e67f0147.Emscripten.clang"
  },
  "schemaVersion": "3.0.0-beta.0",
  "updatedAt": "2018-09-09T04:42:33.445Z"
}